:0300000002077E76
:0C077E00787FE4F6D8FD75816D0207C598
:100C2E0050617373776F72643A0045525200577277
:100C3E006974652050617373776F72643A006F6BDD
:050C4E00004F4B2000E7
:100C5300025B003C02570000014200023C00070215
:100C63003E00000543AE45D61D00054850FDDF128A
:010C73000080
:040CEA007F147E00F5
:100CEE00EF1FAC0670011E4C600A7D027CEFDCFE2D
:040CFE00DDFC80ECAD
:010D020022CE
:100B8500758921758CFF758AA4D28CD2AFD2A975CF
:100B95008921759840758DE8858D8B758780D2ACD8
:0F0BA500D28ED2A8D288D2AAD28AD2BA0209C1DD
:03000300020DB03B
:070DB0007555007556003275
:03001300020DB724
:070DB700755500755602326C
:03000B000208895F
:04088900C0E0C0D03B
:10088D00758CFF758AA4E55645556008E5566403D9
:10089D004555702E0535E53570020534C39440E598
:1008AD0034941F401D753400753500E55C155C7082
:1008BD0002155BE55C455B7009D2B7F559755A03B6
:1008CD00C2B1053FE53F7002053EC3953DE53E953E
:1008DD003C5004D2B68002C2B6C3E53F94C8E53E93
:0A08ED0094004006753E00753F00C0
:0508F700D0D0D0E0327A
:10029800120D41E4FF120C067540008F417F0112D8
:1002A8000C06EFFEEE4240C2B0C2B1755900755A55
:1002B80003E4F555F556120B85120965E5564555C3
:1002C80060030203921206828F4F750C01AB5AAA83
:1002D800597D067F02120B687BFF7A0C792E7D010F
:1002E8007F01120BE3120965E54F60D0C2B77F1991
:1002F8007E00120CEED2B7E54FD3940A5039C3E50D
:100308003B9404E53A94005028AE4DAF4E7C007DF6
:100318000A1200778E4D8F4EE54F75F00A84E5F08E
:10032800254EF54EE4354DF54D053BE53B70020590
:100338003A120B5D120965E54F640B703EE54EB548
:10034800410DE54DB54008755500755602802C7A6B
:100358000C7938120BDDE4120B55E55A155A700268
:100368001559750C01AB5AAA597D067F02120B6804
:10037800E55A45597005F555755603E54F640C6007
:10038800030202C4120B550202C4E5566401455526
:1003980060030204581206828F4F7BFF7A0C793C67
:1003A8007D017F01120BE3E54F60DFC2B77F197E45
:1003B80000120CEED2B7E54FD3940A5036C3E53B92
:1003C8009404E53A94005028AE4DAF4E7C007D0A67
:1003D8001200778E4D8F4EE54F75F00A84E5F025B3
:1003E8004EF54EE4354DF54D053BE53B7002053ABB
:1003F800120B5DE54F640B7048120D41854D408529
:100408004E417C00AD41E4FF120CCE7F057E001208
:100418000CEEE540FD7C007F01120CCE7F057E00CE
:10042800120CEEE4F54DF54EF53AF53BF555F5565B
:100438007A0C794C120BDD7FD07E07120CEE120D70
:1004480041E54F640C6003020392120B55020392BC
:10045800E556640245557061D2B0D2B77F64FE128A
:100468000CEED2B7C2B77F647E00120CEED2B7C2D0
:10047800B77F647E00120CEED2B7120965120D41E7
:100488007BFF7A0C794F120BDFE4F54DF54EF53C06
:10049800753D0E7FDC7E05120CB1753C00753D077D
:1004A8007FE87E03120CB1120D41C2B07559007578
:1004B8005A03E4F555F5568097E55664034555709B
:1004C80025C2B7D2B1120965750C02AB5CAA5B7D77
:1004D8000A7F02120B68750C01AB5AAA597D067F78
:1004E80002120B6880D3E556640445556003020286
:1004F800BEF559755A03F55B755C3C75870180E656
:100CB100D3EF9400EE940040137D017C8E7B02DB28
:0C0CC100FEDCFADDF6EF1F70E71E80E499
:010CCD002204
:100D6800EFD39400400B7E017D02DDFEDEFA1F808A
:010D7800EF8B
:010D79002257
:100965007B007A0079367F521208FCEF704DFB7AD6
:1009750000795012080AEF704278507C00FDFB7A2E
:1009850000794312027BEF7005F5557556027850D4
:100995007C007D007B007A00794812027BEF701B9A
:1009A500C2B37F64FE120CEED2B3C2B37F647E0085
:0C09B500120CEED2B375550075560122ED
:040D55008F328D3319
:0F0D5900E4AF321209FFE5334FFDAF32020A3C1F
:040D19008F328D3355
:100D1D00E4AF321209FFE533F45FFDAF32020A3C56
:080508008F218B228A23892434
:10051000752CFEE4F52DF52EE52124F4600C24FE67
:10052000700E752D12752E108006752D77752E3074
:10053000E52D4480FD7F02120A3C7D807F04120D70
:1005400019E4FD7F01120A3C7D807F0A120D55E4FB
:10055000F530F531C3E5319525E5309400501FABFA
:1005600022AA23A924853182853083120016FD7FBB
:1005700009120A3C0531E53170DA053080D6AD212B
:100580007F01120A3CE521B40C077D807F0D120D1E
:10059000557530077531D07F041209FF8F2FE53173
:1005A000153170021530E53145306009E52F20E046
:1005B00004552E60E27D807F0D120D19E531453026
:1005C00070030206717F061209FFEF541B600302DD
:1005D000066EF52CE52F552D30E003752CFFE52137
:1005E000640C60030206717F0A1209FF8F2F7F0CD3
:1005F0001209FFEF5407FD6021E52F24FFFFE434CB
:10060000FFFEEF7803C333CE33CED8F97C002DFF45
:10061000EC3EAB29AA2AA92B800FE52F75F008A480
:10062000FFAB29AA2AA92BE5F08FF01200DEE52FF7
:100630007003752F01E52FD394124003752F12E438
:10064000F530F531C3E531952FE530940050227F28
:10065000091209FFAB26AA27A92885318285308394
:10066000EF1200550531E53170DA053080D6752C72
:10067000FE7D807F0C120D55E4FD7F01120A3CAF18
:010680002C4D
:010681002256
:090DA700D2A0D2A1C2A0C2A12277
:070DBE00C2A0D2A1D2A022C5
:020BB400AD078B
:100BB600E4FB74807E00A803088006CEA2E713CE6D
:100BC60013D8F8FFEDF582EF558224FF92A0D2A14B
:060BD600C2A10BBB08DC0C
:010BDC0022F6
:100C7500E4FFD2A0FED2A130A00D7480A8060880A2
:0D0C850002C313D8FC4207C2A10EBE08E84E
:010C9200223F
:0A0D8900EF24FF92A0D2A1C2A12224
:080D2D00120DA77FA0120BB408
:0B0D3500D2A0D2A1A2A0E433FFC2A113
:010D40002290
:060D7A00C2A58F80D2A784
:080D80007F027EEFDEFEDFFCC6
:010D88002248
:0A0D9300C2A6120D7AC2A7020D805D
:100C9300CFCDCFCECCCE1200897C007D0A12008945
:040CA300ED2430FF0D
:0A0CA700D2A6120D7AC2A7020D803A
:100D0300AE07BE0104ED148006BE0209ED243F4484
:060D130080FF120D932287
:100D41007F38120D937F0C120D937F06120D937F46
:040D510001020D93FB
:0A0D9D00AC03120D03AF04020CA713
:060BDD007BFF7D0E7F018D
:060BE3008B088A09890A53
:100BE900120D03E4FDAB08AA09A90A8D82758300D9
:0C0BF900120016FF6006120CA70D80E928
:010C050022CC
:0C0B22007F0AEA24FFFDE434FFFC7E00A3
:080B2E008E0D8F0E8C0F8D104F
:100B36007F017E00E4FBEBC39510E50F6480F8743B
:0E0B46008098500AAC0DAD0E1200770B80E8BF
:010B5400227E
:100B5500F54DF54EF53AF53B750C04AB4EAA4D7DBA
:030B6500017F020B
:040B68008A0A8B0B5F
:100B6C00120D03AA0CEAD39400400D120B22AC0A0E
:080B7C00AD0B120C931A80ED81
:010B8400224E
:100A7700120D03C3EA64809480400B7F2B120CA7EE
:100A87008A628B63800E7F2D120CA7C3E49BF563EC
:100A9700E49AF562AA61EAD39400400D120B22ACE6
:090AA70062AD63120C931A80ED9C
:010AB0002223
:040AB1008A668B675F
:100AB500120D03AA68EAD3940040297F10120B2473
:100AC500AC66AD67CFCDCFCECCCE120089EF540F3B
:100AD500FEC3940AEE5004243080022437FF120C22
:040AE500A71A80D1FB
:010AE90022EA
:040AEA008A6B8B6C1C
:100AEE00120D03AA6DEAD394004028EA24FFFDE418
:100AFE0034FFFC7F027E00120B2EAC6BAD6CCFCDA3
:100B0E00CFCECCCE120089EF54012430FF120CA7A9
:030B1E001A80D268
:010B210022B1
:10068200E4FB7590FFC29320970E7F14FE120CEECE
:100692003097FD120CEA7B0120960B120CEA309681
:1006A200FD120CEA7B0520950B120CEA3095FD1227
:1006B2000CEA7B0920940B120CEA3094FD120CEA2E
:1006C2007B0D7590FFC29220970B120CEA3097FDBA
:1006D200120CEA7B0220960B120CEA3096FD120CE9
:1006E200EA7B0620950B120CEA3095FD120CEA7B90
:1006F2000A20940B120CEA3094FD120CEA7B0E7560
:1007020090FFC29120970B120CEA3097FD120CEA6F
:100712007B0320960B120CEA3096FD120CEA7B0743
:1007220020950B120CEA3095FD120CEA7B0B2094FB
:100732000B120CEA3094FD120CEA7B0F7590FFC28B
:100742009020970B120CEA3097FD120CEA7B0420E2
:10075200960B120CEA3096FD120CEA7B0820950BE0
:10076200120CEA3095FD120CEA7B0C20940B120C51
:0B077200EA3094FD120CEA7B10AF038C
:01077D002259
:100CCE008C088D09AA07120D2DAF02120BB4120D4E
:0C0CDE0035AF09120BB4120D35020DBE2B
:020C0600AC0739
:100C0800120D2DAF04120BB4120D35120DA77FA1D2
:100C1800120BB4120D35120C75AE077F01120D8937
:050C2800120DBEAF0635
:010C2D0022A4
:0808FC008F088B098A0A890BA1
:100904007D087F08120D197D077F0D120A3C7D03B7
:100914007F14120D5585080E75250175260075275F
:100924000075280E752900752A00752B0C7B007A3A
:1009340000790E7F0C120508EF7023E50D64104555
:100944000C701BAB09AA0AA90BE50E120043AB09F4
:10095400AA0AA90B900001E50F12005580027FFE40
:010964002270
:06080A008B088A09890A2F
:10081000E4F50C7D087F08120D19E4FD7F0D120A26
:100820003C7D807F0E120D19750F93751020752574
:100830000275260075270075280F752900752A0096
:10084000752B0D7B007A00790F7F0C1205088F0B3A
:10085000E50B702BFF740F2FF8E6AB08AA09A90A65
:100860008F82758300120055740F2FF8E6620C0F0B
:10087000BF04E2740F2FF8E6650C6003750BFE7D74
:08088000807F0E120D55AF0B35
:01088800224D
:1009C100D2B500C2B500D2B5007D0F7F01120A3C3D
:1009D100007D3D7F11120A3C7D1E7F2D120A3CE4F1
:1009E100FD7F2C120A3C7D8D7F2A120A3C7D3E7FC1
:0E09F1002B120A3C7D407F15120A3C7F00222B
:1009FF00E4FEC2A3C2A2EF25E0547E4480FF7D082F
:100A0F00EF30E703D38001C392B4D2A3EF25E0FF09
:100A1F00C2A3DDEC7D08D2A3EE25E0FEA2A4E43351
:0C0A2F004206C2A3DDF0D2A2D2A3AF06A3
:010A3B002298
:100A3C00C2A3C2A2EF25E0547EFF7E08EF30E7038D
:100A4C00D38001C392B4D2A3EF25E0FFC2A3DEECA6
:100A5C007E08ED30E703D38001C392B4D2A3ED2519
:0A0A6C00E0FDC2A3DEECD2A2D2A38B
:010A7600225D
:10078A00020298E493A3F8E493A34003F68001F2EB
:10079A0008DFF48029E493A3F85407240CC8C33370
:1007AA00C4540F4420C8834004F456800146F6DF3F
:1007BA00E4800B0102040810204080900C53E47E70
:1007CA00019360BCA3FF543F30E509541FFEE49334
:1007DA00A360010ECF54C025E060A840B8E493A3FB
:1007EA00FAE493A3F8E493A3C8C582C8CAC583CA26
:1007FA00F0A3C8C582C8CAC583CADFE9DEE780BEDE
:010C7400007F
:10001600BB010CE58229F582E5833AF583E022509F
:1000260006E92582F8E622BBFE06E92582F8E222E9
:0D003600E58229F582E5833AF583E4932203
:10004300BB010689828A83F0225002F722BBFE019C
:02005300F32296
:10005500F8BB010DE58229F582E5833AF583E8F0E1
:10006500225006E92582C8F622BBFE05E92582C88D
:02007500F22275
:10007700EF8DF0A4A8F0CF8CF0A428CE8DF0A42E9D
:02008700FE2257
:10008900BC000BBE0029EF8DF084FFADF022E4CC5B
:10009900F875F008EF2FFFEE33FEEC33FCEE9DEC24
:1000A900984005FCEE9DFE0FD5F0E9E4CEFD22ED6A
:1000B900F8F5F0EE8420D21CFEADF075F008EF2FB4
:1000C900FFED33FD4007985006D5F0F222C398FDA5
:0500D9000FD5F0EA2242
:1000DE00BB010A89828A83F0E5F0A3F0225006F76D
:0F00EE0009A7F01922BBFE06F3E5F009F319226A
:1000FD00E3F5F009E208B5F06D606B80F3E3F5F020
:10010D0009E608B5F060605E80F387F009E608B592
:10011D00F054605280F487F009E208B5F04860466B
:10012D0080F488828C8387F009E0A3B5F0386036BF
:10013D0080F488828C8387F009E493A3B5F027605F
:10014D002580F388828C83E3F5F009E0A3B5F016E2
:10015D00601480F388828C83E3F5F009E493A3B5F2
:10016D00F004600280F2020228808580E7808E8094
:10017D00D2803C8015806C807E809B80B5808B808A
:10018D00A1804F8070803A02023489828A83ECFA12
:10019D00E493F5F0A3C8C582C8CCC583CCE493A382
:1001AD00C8C582C8CCC583CCB5F070606E80E189BE
:1001BD00828A83E493F5F0A3E208B5F05E605C807B
:1001CD00F289828A83E0F5F0A3E608B5F04D604B25
:1001DD0080F389828A83E0F5F0A3E208B5F03C60F4
:1001ED003A80F389828A83E493F5F0A3E608B5F0AB
:1001FD002A602880F2805389828A83ECFAE493F591
:10020D00F0A3C8C582C8CCC583CCE0A3C8C582C83D
:10021D00CCC583CCB5F004600280E27FFFB5F0025F
:10022D000F2240027F012289828A83ECFAE0F5F0E9
:10023D00A3C8C582C8CCC583CCE0A3C8C582C8CC31
:10024D00C583CCB5F0D560D380E389828A83ECFA7F
:10025D00E0F5F0A3C8C582C8CCC583CCE493A3C890
:10026D00C582C8CCC583CCB5F0B160AF80E288F053
:10027D00ED2402B4040050A3F582EB2402B4040073
:0B028D005099232345822390017673D3
:00000001FF
